{
  "_format": "hh-sol-artifact-1",
  "contractName": "SimpleStorage",
  "sourceName": "contracts/simple-storage.sol",
  "abi": [
    {
      "inputs": [],
      "stateMutability": "nonpayable",
      "type": "constructor"
    },
    {
      "anonymous": false,
      "inputs": [
        {
          "indexed": false,
          "internalType": "string",
          "name": "newMessage",
          "type": "string"
        }
      ],
      "name": "MessageUpdated",
      "type": "event"
    },
    {
      "anonymous": false,
      "inputs": [
        {
          "indexed": true,
          "internalType": "address",
          "name": "oldOwner",
          "type": "address"
        },
        {
          "indexed": true,
          "internalType": "address",
          "name": "newOwner",
          "type": "address"
        }
      ],
      "name": "OwnerSet",
      "type": "event"
    },
    {
      "anonymous": false,
      "inputs": [
        {
          "indexed": false,
          "internalType": "uint256",
          "name": "newValue",
          "type": "uint256"
        }
      ],
      "name": "ValueUpdated",
      "type": "event"
    },
    {
      "inputs": [],
      "name": "getMessage",
      "outputs": [
        {
          "internalType": "string",
          "name": "",
          "type": "string"
        }
      ],
      "stateMutability": "view",
      "type": "function"
    },
    {
      "inputs": [],
      "name": "getValue",
      "outputs": [
        {
          "internalType": "uint256",
          "name": "",
          "type": "uint256"
        }
      ],
      "stateMutability": "view",
      "type": "function"
    },
    {
      "inputs": [],
      "name": "message",
      "outputs": [
        {
          "internalType": "string",
          "name": "",
          "type": "string"
        }
      ],
      "stateMutability": "view",
      "type": "function"
    },
    {
      "inputs": [],
      "name": "owner",
      "outputs": [
        {
          "internalType": "address",
          "name": "",
          "type": "address"
        }
      ],
      "stateMutability": "view",
      "type": "function"
    },
    {
      "inputs": [
        {
          "internalType": "string",
          "name": "_message",
          "type": "string"
        }
      ],
      "name": "setMessage",
      "outputs": [],
      "stateMutability": "nonpayable",
      "type": "function"
    },
    {
      "inputs": [
        {
          "internalType": "uint256",
          "name": "_value",
          "type": "uint256"
        }
      ],
      "name": "setValue",
      "outputs": [],
      "stateMutability": "nonpayable",
      "type": "function"
    }
  ],
  "bytecode": "0x6080604052348015600e575f5ffd5b505f80546001600160a01b0319163390811782556040519091907f342827c97908e5e2f71151c08502a66d44b6f758e3ac2f1de95f02eb95f0a735908290a36105f18061005a5f395ff3fe608060405234801561000f575f5ffd5b506004361061006f575f3560e01c80638da5cb5b1161004d5780638da5cb5b146100b1578063ce6d41de146100f5578063e21f37ce1461010a575f5ffd5b80632096525514610073578063368b877214610089578063552410771461009e575b5f5ffd5b6001546040519081526020015b60405180910390f35b61009c610097366004610367565b610112565b005b61009c6100ac36600461041a565b6101b0565b5f546100d09073ffffffffffffffffffffffffffffffffffffffff1681565b60405173ffffffffffffffffffffffffffffffffffffffff9091168152602001610080565b6100fd610237565b6040516100809190610431565b6100fd6102c7565b5f5473ffffffffffffffffffffffffffffffffffffffff1633146101695760405162461bcd60e51b81526020600482015260096024820152682737ba1037bbb732b960b91b60448201526064015b60405180910390fd5b60026101758282610500565b507f8fae638bf5c6396194a6bb16601c4035a07fa48191638ff4102f0d96f14cfefb816040516101a59190610431565b60405180910390a150565b5f5473ffffffffffffffffffffffffffffffffffffffff1633146102025760405162461bcd60e51b81526020600482015260096024820152682737ba1037bbb732b960b91b6044820152606401610160565b60018190556040518181527f4273d0736f60e0dedfe745e86718093d8ec8646ebd2a60cd60643eeced565811906020016101a5565b6060600280546102469061047c565b80601f01602080910402602001604051908101604052809291908181526020018280546102729061047c565b80156102bd5780601f10610294576101008083540402835291602001916102bd565b820191905f5260205f20905b8154815290600101906020018083116102a057829003601f168201915b5050505050905090565b600280546102d49061047c565b80601f01602080910402602001604051908101604052809291908181526020018280546103009061047c565b801561034b5780601f106103225761010080835404028352916020019161034b565b820191905f5260205f20905b81548152906001019060200180831161032e57829003601f168201915b505050505081565b634e487b7160e01b5f52604160045260245ffd5b5f60208284031215610377575f5ffd5b813567ffffffffffffffff81111561038d575f5ffd5b8201601f8101841361039d575f5ffd5b803567ffffffffffffffff8111156103b7576103b7610353565b604051601f8201601f19908116603f0116810167ffffffffffffffff811182821017156103e6576103e6610353565b6040528181528282016020018610156103fd575f5ffd5b816020840160208301375f91810160200191909152949350505050565b5f6020828403121561042a575f5ffd5b5035919050565b602081525f82518060208401525f5b8181101561045d5760208186018101516040868401015201610440565b505f604082850101526040601f19601f83011684010191505092915050565b600181811c9082168061049057607f821691505b6020821081036104ae57634e487b7160e01b5f52602260045260245ffd5b50919050565b601f8211156104fb57805f5260205f20601f840160051c810160208510156104d95750805b601f840160051c820191505b818110156104f8575f81556001016104e5565b50505b505050565b815167ffffffffffffffff81111561051a5761051a610353565b61052e81610528845461047c565b846104b4565b6020601f821160018114610560575f83156105495750848201515b5f19600385901b1c1916600184901b1784556104f8565b5f84815260208120601f198516915b8281101561058f578785015182556020948501946001909201910161056f565b50848210156105ac57868401515f19600387901b60f8161c191681555b50505050600190811b0190555056fea2646970667358221220dadb5c656f4576e0e41c447460d3d4ddcc2ee3681d24a2cc59218445f0579aea64736f6c634300081b0033",
  "linkReferences": {},
  "deployedLinkReferences": {}
}